{
  "_format": "hh-sol-artifact-1",
  "contractName": "BlacklistManager",
  "sourceName": "contracts/BlacklistManager.sol",
  "abi": [
    {
      "anonymous": false,
      "inputs": [
        {
          "indexed": false,
          "internalType": "address",
          "name": "user",
          "type": "address"
        },
        {
          "indexed": false,
          "internalType": "uint256",
          "name": "newTotal",
          "type": "uint256"
        }
      ],
      "name": "ApplyIncremented",
      "type": "event"
    },
    {
      "anonymous": false,
      "inputs": [
        {
          "indexed": false,
          "internalType": "string",
          "name": "keyword",
          "type": "string"
        },
        {
          "indexed": false,
          "internalType": "address",
          "name": "createdBy",
          "type": "address"
        },
        {
          "indexed": false,
          "internalType": "string",
          "name": "username",
          "type": "string"
        },
        {
          "indexed": false,
          "internalType": "uint256",
          "name": "timestamp",
          "type": "uint256"
        }
      ],
      "name": "BlacklistKeywordAdded",
      "type": "event"
    },
    {
      "anonymous": false,
      "inputs": [
        {
          "indexed": false,
          "internalType": "string",
          "name": "keyword",
          "type": "string"
        },
        {
          "indexed": false,
          "internalType": "address",
          "name": "removedBy",
          "type": "address"
        },
        {
          "indexed": false,
          "internalType": "uint256",
          "name": "timestamp",
          "type": "uint256"
        }
      ],
      "name": "BlacklistKeywordRemoved",
      "type": "event"
    },
    {
      "anonymous": false,
      "inputs": [
        {
          "indexed": false,
          "internalType": "address",
          "name": "user",
          "type": "address"
        },
        {
          "indexed": false,
          "internalType": "string",
          "name": "username",
          "type": "string"
        }
      ],
      "name": "UsernameSet",
      "type": "event"
    },
    {
      "anonymous": false,
      "inputs": [
        {
          "indexed": false,
          "internalType": "address",
          "name": "user",
          "type": "address"
        },
        {
          "indexed": false,
          "internalType": "uint256",
          "name": "newTotal",
          "type": "uint256"
        }
      ],
      "name": "VerifyIncremented",
      "type": "event"
    },
    {
      "inputs": [
        {
          "internalType": "string",
          "name": "keyword",
          "type": "string"
        },
        {
          "internalType": "string",
          "name": "username",
          "type": "string"
        }
      ],
      "name": "addBlacklistKeyword",
      "outputs": [],
      "stateMutability": "nonpayable",
      "type": "function"
    },
    {
      "inputs": [
        {
          "internalType": "string",
          "name": "",
          "type": "string"
        }
      ],
      "name": "blacklistEntries",
      "outputs": [
        {
          "internalType": "string",
          "name": "keyword",
          "type": "string"
        },
        {
          "internalType": "address",
          "name": "createdBy",
          "type": "address"
        },
        {
          "internalType": "string",
          "name": "username",
          "type": "string"
        },
        {
          "internalType": "uint256",
          "name": "timestamp",
          "type": "uint256"
        },
        {
          "internalType": "bool",
          "name": "isActive",
          "type": "bool"
        }
      ],
      "stateMutability": "view",
      "type": "function"
    },
    {
      "inputs": [
        {
          "internalType": "string",
          "name": "keyword",
          "type": "string"
        }
      ],
      "name": "getBlacklistEntry",
      "outputs": [
        {
          "internalType": "string",
          "name": "keywordName",
          "type": "string"
        },
        {
          "internalType": "address",
          "name": "createdBy",
          "type": "address"
        },
        {
          "internalType": "string",
          "name": "username",
          "type": "string"
        },
        {
          "internalType": "uint256",
          "name": "timestamp",
          "type": "uint256"
        },
        {
          "internalType": "bool",
          "name": "isActive",
          "type": "bool"
        }
      ],
      "stateMutability": "view",
      "type": "function"
    },
    {
      "inputs": [],
      "name": "getStatistics",
      "outputs": [
        {
          "internalType": "uint256",
          "name": "totalApply",
          "type": "uint256"
        },
        {
          "internalType": "uint256",
          "name": "totalVerify",
          "type": "uint256"
        },
        {
          "internalType": "uint256",
          "name": "totalBlacklistEntries",
          "type": "uint256"
        }
      ],
      "stateMutability": "view",
      "type": "function"
    },
    {
      "inputs": [
        {
          "internalType": "address",
          "name": "user",
          "type": "address"
        }
      ],
      "name": "getUserInfo",
      "outputs": [
        {
          "internalType": "string",
          "name": "username",
          "type": "string"
        },
        {
          "internalType": "uint256",
          "name": "createdEntries",
          "type": "uint256"
        }
      ],
      "stateMutability": "view",
      "type": "function"
    },
    {
      "inputs": [
        {
          "internalType": "address",
          "name": "user",
          "type": "address"
        }
      ],
      "name": "getUsername",
      "outputs": [
        {
          "internalType": "string",
          "name": "",
          "type": "string"
        }
      ],
      "stateMutability": "view",
      "type": "function"
    },
    {
      "inputs": [],
      "name": "incrementApply",
      "outputs": [],
      "stateMutability": "nonpayable",
      "type": "function"
    },
    {
      "inputs": [],
      "name": "incrementVerify",
      "outputs": [],
      "stateMutability": "nonpayable",
      "type": "function"
    },
    {
      "inputs": [
        {
          "internalType": "string",
          "name": "keyword",
          "type": "string"
        }
      ],
      "name": "isKeywordBlacklisted",
      "outputs": [
        {
          "internalType": "bool",
          "name": "",
          "type": "bool"
        }
      ],
      "stateMutability": "view",
      "type": "function"
    },
    {
      "inputs": [
        {
          "internalType": "string",
          "name": "keyword",
          "type": "string"
        }
      ],
      "name": "removeBlacklistKeyword",
      "outputs": [],
      "stateMutability": "nonpayable",
      "type": "function"
    },
    {
      "inputs": [
        {
          "internalType": "string",
          "name": "username",
          "type": "string"
        }
      ],
      "name": "setUsername",
      "outputs": [],
      "stateMutability": "nonpayable",
      "type": "function"
    },
    {
      "inputs": [],
      "name": "stats",
      "outputs": [
        {
          "internalType": "uint256",
          "name": "totalApply",
          "type": "uint256"
        },
        {
          "internalType": "uint256",
          "name": "totalVerify",
          "type": "uint256"
        },
        {
          "internalType": "uint256",
          "name": "totalBlacklistEntries",
          "type": "uint256"
        }
      ],
      "stateMutability": "view",
      "type": "function"
    },
    {
      "inputs": [
        {
          "internalType": "address",
          "name": "",
          "type": "address"
        }
      ],
      "name": "userCreatedEntries",
      "outputs": [
        {
          "internalType": "uint256",
          "name": "",
          "type": "uint256"
        }
      ],
      "stateMutability": "view",
      "type": "function"
    },
    {
      "inputs": [
        {
          "internalType": "address",
          "name": "",
          "type": "address"
        }
      ],
      "name": "userUsernames",
      "outputs": [
        {
          "internalType": "string",
          "name": "",
          "type": "string"
        }
      ],
      "stateMutability": "view",
      "type": "function"
    }
  ],
  "bytecode": "0x608060405234801561001057600080fd5b50611f09806100206000396000f3fe608060405234801561001057600080fd5b50600436106100ea5760003560e01c80636386c1c71161008c578063ce70a22a11610066578063ce70a22a14610254578063d059d72314610284578063d80528ae146102b4578063ed59313a146102d4576100ea565b80636386c1c7146101bf57806377c92892146101f0578063ce43c03214610224576100ea565b8063372d6b27116100c8578063372d6b2714610133578063479ecd4a1461015357806349853e8b1461016f5780635bb20b8c146101a3576100ea565b806303876a77146100ef5780630bce9570146100f957806317fcd03f14610103575b600080fd5b6100f76102f0565b005b61010161034b565b005b61011d60048036038101906101189190611372565b6103a6565b60405161012a91906113d6565b60405180910390f35b61013b6103dd565b60405161014a9392919061140a565b60405180910390f35b61016d60048036038101906101689190611441565b6103ff565b005b61018960048036038101906101849190611372565b610912565b60405161019a959493929190611579565b60405180910390f35b6101bd60048036038101906101b89190611372565b610b13565b005b6101d960048036038101906101d49190611606565b610cc2565b6040516101e7929190611633565b60405180910390f35b61020a60048036038101906102059190611372565b610dda565b60405161021b959493929190611579565b60405180910390f35b61023e60048036038101906102399190611606565b610f63565b60405161024b9190611663565b60405180910390f35b61026e60048036038101906102699190611606565b611034565b60405161027b9190611685565b60405180910390f35b61029e60048036038101906102999190611606565b61104c565b6040516102ab9190611663565b60405180910390f35b6102bc6110ec565b6040516102cb9392919061140a565b60405180910390f35b6102ee60048036038101906102e99190611372565b611104565b005b60036000016000815480929190610306906116cf565b91905055507ff4d061ca0bc7fb388904139da4500de1d410477d418ab8bc7c07b365265572f133600360000154604051610341929190611717565b60405180910390a1565b60036001016000815480929190610361906116cf565b91905055507fbde12b36b36171ba34be49440c313c3d298b94f37e129179e5952258e53325bc3360036001015460405161039c929190611717565b60405180910390a1565b600080826040516103b7919061177c565b908152602001604051809103902060040160009054906101000a900460ff169050919050565b6000806000600360000154600360010154600360020154925092509250909192565b816000815111610444576040517f08c379a000000000000000000000000000000000000000000000000000000000815260040161043b906117df565b60405180910390fd5b606481511115610489576040517f08c379a00000000000000000000000000000000000000000000000000000000081526004016104809061184b565b60405180910390fd5b8160008151116104ce576040517f08c379a00000000000000000000000000000000000000000000000000000000081526004016104c5906118b7565b60405180910390fd5b603281511115610513576040517f08c379a000000000000000000000000000000000000000000000000000000000815260040161050a90611923565b60405180910390fd5b600084604051610523919061177c565b908152602001604051809103902060040160009054906101000a900460ff1615610582576040517f08c379a00000000000000000000000000000000000000000000000000000000081526004016105799061198f565b60405180910390fd5b6000600160003373ffffffffffffffffffffffffffffffffffffffff1673ffffffffffffffffffffffffffffffffffffffff16815260200190815260200160002080546105ce906119de565b90500361065c5782600160003373ffffffffffffffffffffffffffffffffffffffff1673ffffffffffffffffffffffffffffffffffffffff16815260200190815260200160002090816106219190611bbb565b507f74d8e560d2e870c35b35dc882df2a5c96e2bf1cdb5ef6dd2f9cb433c8d0488533384604051610653929190611c8d565b60405180910390a15b6040518060a001604052808581526020013373ffffffffffffffffffffffffffffffffffffffff168152602001600160003373ffffffffffffffffffffffffffffffffffffffff1673ffffffffffffffffffffffffffffffffffffffff16815260200190815260200160002080546106d3906119de565b80601f01602080910402602001604051908101604052809291908181526020018280546106ff906119de565b801561074c5780601f106107215761010080835404028352916020019161074c565b820191906000526020600020905b81548152906001019060200180831161072f57829003601f168201915b5050505050815260200142815260200160011515815250600085604051610773919061177c565b908152602001604051809103902060008201518160000190816107969190611bbb565b5060208201518160010160006101000a81548173ffffffffffffffffffffffffffffffffffffffff021916908373ffffffffffffffffffffffffffffffffffffffff16021790555060408201518160020190816107f39190611bbb565b506060820151816003015560808201518160040160006101000a81548160ff021916908315150217905550905050600260003373ffffffffffffffffffffffffffffffffffffffff1673ffffffffffffffffffffffffffffffffffffffff1681526020019081526020016000206000815480929190610871906116cf565b91905055506003600201600081548092919061088c906116cf565b91905055507f0dede1cb9712a18c1fc30b5a52c544c7f5b45e3c433d5e1c8b87541d14af00e88433600160003373ffffffffffffffffffffffffffffffffffffffff1673ffffffffffffffffffffffffffffffffffffffff168152602001908152602001600020426040516109049493929190611d41565b60405180910390a150505050565b6060600060606000806000808760405161092c919061177c565b90815260200160405180910390206040518060a0016040529081600082018054610955906119de565b80601f0160208091040260200160405190810160405280929190818152602001828054610981906119de565b80156109ce5780601f106109a3576101008083540402835291602001916109ce565b820191906000526020600020905b8154815290600101906020018083116109b157829003601f168201915b505050505081526020016001820160009054906101000a900473ffffffffffffffffffffffffffffffffffffffff1673ffffffffffffffffffffffffffffffffffffffff1673ffffffffffffffffffffffffffffffffffffffff168152602001600282018054610a3d906119de565b80601f0160208091040260200160405190810160405280929190818152602001828054610a69906119de565b8015610ab65780601f10610a8b57610100808354040283529160200191610ab6565b820191906000526020600020905b815481529060010190602001808311610a9957829003601f168201915b50505050508152602001600382015481526020016004820160009054906101000a900460ff161515151581525050905080600001518160200151826040015183606001518460800151955095509550955095505091939590929450565b600081604051610b23919061177c565b908152602001604051809103902060040160009054906101000a900460ff16610b81576040517f08c379a0000000000000000000000000000000000000000000000000000000008152600401610b7890611de0565b60405180910390fd5b3373ffffffffffffffffffffffffffffffffffffffff16600082604051610ba8919061177c565b908152602001604051809103902060010160009054906101000a900473ffffffffffffffffffffffffffffffffffffffff1673ffffffffffffffffffffffffffffffffffffffff1614610c30576040517f08c379a0000000000000000000000000000000000000000000000000000000008152600401610c2790611e4c565b60405180910390fd5b60008082604051610c41919061177c565b908152602001604051809103902060040160006101000a81548160ff02191690831515021790555060036002016000815480929190610c7f90611e6c565b91905055507f1ee7f6b5fa3d2e219376bc1cc503f15347fe3b0c91b6bd4e4d4c951642e60aad813342604051610cb793929190611e95565b60405180910390a150565b60606000600160008473ffffffffffffffffffffffffffffffffffffffff1673ffffffffffffffffffffffffffffffffffffffff168152602001908152602001600020600260008573ffffffffffffffffffffffffffffffffffffffff1673ffffffffffffffffffffffffffffffffffffffff16815260200190815260200160002054818054610d51906119de565b80601f0160208091040260200160405190810160405280929190818152602001828054610d7d906119de565b8015610dca5780601f10610d9f57610100808354040283529160200191610dca565b820191906000526020600020905b815481529060010190602001808311610dad57829003601f168201915b5050505050915091509150915091565b600081805160208101820180518482526020830160208501208183528095505050505050600091509050806000018054610e13906119de565b80601f0160208091040260200160405190810160405280929190818152602001828054610e3f906119de565b8015610e8c5780601f10610e6157610100808354040283529160200191610e8c565b820191906000526020600020905b815481529060010190602001808311610e6f57829003601f168201915b5050505050908060010160009054906101000a900473ffffffffffffffffffffffffffffffffffffffff1690806002018054610ec7906119de565b80601f0160208091040260200160405190810160405280929190818152602001828054610ef3906119de565b8015610f405780601f10610f1557610100808354040283529160200191610f40565b820191906000526020600020905b815481529060010190602001808311610f2357829003601f168201915b5050505050908060030154908060040160009054906101000a900460ff16905085565b6060600160008373ffffffffffffffffffffffffffffffffffffffff1673ffffffffffffffffffffffffffffffffffffffff1681526020019081526020016000208054610faf906119de565b80601f0160208091040260200160405190810160405280929190818152602001828054610fdb906119de565b80156110285780601f10610ffd57610100808354040283529160200191611028565b820191906000526020600020905b81548152906001019060200180831161100b57829003601f168201915b50505050509050919050565b60026020528060005260406000206000915090505481565b6001602052806000526040600020600091509050805461106b906119de565b80601f0160208091040260200160405190810160405280929190818152602001828054611097906119de565b80156110e45780601f106110b9576101008083540402835291602001916110e4565b820191906000526020600020905b8154815290600101906020018083116110c757829003601f168201915b505050505081565b60038060000154908060010154908060020154905083565b806000815111611149576040517f08c379a0000000000000000000000000000000000000000000000000000000008152600401611140906118b7565b60405180910390fd5b60328151111561118e576040517f08c379a000000000000000000000000000000000000000000000000000000000815260040161118590611923565b60405180910390fd5b81600160003373ffffffffffffffffffffffffffffffffffffffff1673ffffffffffffffffffffffffffffffffffffffff16815260200190815260200160002090816111da9190611bbb565b507f74d8e560d2e870c35b35dc882df2a5c96e2bf1cdb5ef6dd2f9cb433c8d048853338360405161120c929190611c8d565b60405180910390a15050565b6000604051905090565b600080fd5b600080fd5b600080fd5b600080fd5b6000601f19601f8301169050919050565b7f4e487b7100000000000000000000000000000000000000000000000000000000600052604160045260246000fd5b61127f82611236565b810181811067ffffffffffffffff8211171561129e5761129d611247565b5b80604052505050565b60006112b1611218565b90506112bd8282611276565b919050565b600067ffffffffffffffff8211156112dd576112dc611247565b5b6112e682611236565b9050602081019050919050565b82818337600083830152505050565b6000611315611310846112c2565b6112a7565b90508281526020810184848401111561133157611330611231565b5b61133c8482856112f3565b509392505050565b600082601f8301126113595761135861122c565b5b8135611369848260208601611302565b91505092915050565b60006020828403121561138857611387611222565b5b600082013567ffffffffffffffff8111156113a6576113a5611227565b5b6113b284828501611344565b91505092915050565b60008115159050919050565b6113d0816113bb565b82525050565b60006020820190506113eb60008301846113c7565b92915050565b6000819050919050565b611404816113f1565b82525050565b600060608201905061141f60008301866113fb565b61142c60208301856113fb565b61143960408301846113fb565b949350505050565b6000806040838503121561145857611457611222565b5b600083013567ffffffffffffffff81111561147657611475611227565b5b61148285828601611344565b925050602083013567ffffffffffffffff8111156114a3576114a2611227565b5b6114af85828601611344565b9150509250929050565b600081519050919050565b600082825260208201905092915050565b60005b838110156114f35780820151818401526020810190506114d8565b60008484015250505050565b600061150a826114b9565b61151481856114c4565b93506115248185602086016114d5565b61152d81611236565b840191505092915050565b600073ffffffffffffffffffffffffffffffffffffffff82169050919050565b600061156382611538565b9050919050565b61157381611558565b82525050565b600060a082019050818103600083015261159381886114ff565b90506115a2602083018761156a565b81810360408301526115b481866114ff565b90506115c360608301856113fb565b6115d060808301846113c7565b9695505050505050565b6115e381611558565b81146115ee57600080fd5b50565b600081359050611600816115da565b92915050565b60006020828403121561161c5761161b611222565b5b600061162a848285016115f1565b91505092915050565b6000604082019050818103600083015261164d81856114ff565b905061165c60208301846113fb565b9392505050565b6000602082019050818103600083015261167d81846114ff565b905092915050565b600060208201905061169a60008301846113fb565b92915050565b7f4e487b7100000000000000000000000000000000000000000000000000000000600052601160045260246000fd5b60006116da826113f1565b91507fffffffffffffffffffffffffffffffffffffffffffffffffffffffffffffffff820361170c5761170b6116a0565b5b600182019050919050565b600060408201905061172c600083018561156a565b61173960208301846113fb565b9392505050565b600081905092915050565b6000611756826114b9565b6117608185611740565b93506117708185602086016114d5565b80840191505092915050565b6000611788828461174b565b915081905092915050565b7f4b6579776f72642063616e6e6f7420626520656d707479000000000000000000600082015250565b60006117c96017836114c4565b91506117d482611793565b602082019050919050565b600060208201905081810360008301526117f8816117bc565b9050919050565b7f4b6579776f726420746f6f206c6f6e6700000000000000000000000000000000600082015250565b60006118356010836114c4565b9150611840826117ff565b602082019050919050565b6000602082019050818103600083015261186481611828565b9050919050565b7f557365726e616d652063616e6e6f7420626520656d7074790000000000000000600082015250565b60006118a16018836114c4565b91506118ac8261186b565b602082019050919050565b600060208201905081810360008301526118d081611894565b9050919050565b7f557365726e616d6520746f6f206c6f6e67000000000000000000000000000000600082015250565b600061190d6011836114c4565b9150611918826118d7565b602082019050919050565b6000602082019050818103600083015261193c81611900565b9050919050565b7f4b6579776f726420616c726561647920696e20626c61636b6c69737400000000600082015250565b6000611979601c836114c4565b915061198482611943565b602082019050919050565b600060208201905081810360008301526119a88161196c565b9050919050565b7f4e487b7100000000000000000000000000000000000000000000000000000000600052602260045260246000fd5b600060028204905060018216806119f657607f821691505b602082108103611a0957611a086119af565b5b50919050565b60008190508160005260206000209050919050565b60006020601f8301049050919050565b600082821b905092915050565b600060088302611a717fffffffffffffffffffffffffffffffffffffffffffffffffffffffffffffffff82611a34565b611a7b8683611a34565b95508019841693508086168417925050509392505050565b6000819050919050565b6000611ab8611ab3611aae846113f1565b611a93565b6113f1565b9050919050565b6000819050919050565b611ad283611a9d565b611ae6611ade82611abf565b848454611a41565b825550505050565b600090565b611afb611aee565b611b06818484611ac9565b505050565b5b81811015611b2a57611b1f600082611af3565b600181019050611b0c565b5050565b601f821115611b6f57611b4081611a0f565b611b4984611a24565b81016020851015611b58578190505b611b6c611b6485611a24565b830182611b0b565b50505b505050565b600082821c905092915050565b6000611b9260001984600802611b74565b1980831691505092915050565b6000611bab8383611b81565b9150826002028217905092915050565b611bc4826114b9565b67ffffffffffffffff811115611bdd57611bdc611247565b5b611be782546119de565b611bf2828285611b2e565b600060209050601f831160018114611c255760008415611c13578287015190505b611c1d8582611b9f565b865550611c85565b601f198416611c3386611a0f565b60005b82811015611c5b57848901518255600182019150602085019450602081019050611c36565b86831015611c785784890151611c74601f891682611b81565b8355505b6001600288020188555050505b505050505050565b6000604082019050611ca2600083018561156a565b8181036020830152611cb481846114ff565b90509392505050565b60008154611cca816119de565b611cd481866114c4565b94506001821660008114611cef5760018114611d0557611d38565b60ff198316865281151560200286019350611d38565b611d0e85611a0f565b60005b83811015611d3057815481890152600182019150602081019050611d11565b808801955050505b50505092915050565b60006080820190508181036000830152611d5b81876114ff565b9050611d6a602083018661156a565b8181036040830152611d7c8185611cbd565b9050611d8b60608301846113fb565b95945050505050565b7f4b6579776f7264206e6f7420696e20626c61636b6c6973740000000000000000600082015250565b6000611dca6018836114c4565b9150611dd582611d94565b602082019050919050565b60006020820190508181036000830152611df981611dbd565b9050919050565b7f4f6e6c792063726561746f722063616e2072656d6f7665206b6579776f726400600082015250565b6000611e36601f836114c4565b9150611e4182611e00565b602082019050919050565b60006020820190508181036000830152611e6581611e29565b9050919050565b6000611e77826113f1565b915060008203611e8a57611e896116a0565b5b600182039050919050565b60006060820190508181036000830152611eaf81866114ff565b9050611ebe602083018561156a565b611ecb60408301846113fb565b94935050505056fea26469706673582212203ea453fdb5699dfd0d9f8cefd6f1c5bd31913f52fdb44a726bfcce567930698064736f6c63430008130033",
  "linkReferences": {},
  "deployedLinkReferences": {}
}