{
  "_format": "hh-sol-artifact-1",
  "contractName": "BlacklistManager",
  "sourceName": "contracts/BlacklistManager.sol",
  "abi": [
    {
      "anonymous": false,
      "inputs": [
        {
          "indexed": false,
          "internalType": "string",
          "name": "keyword",
          "type": "string"
        },
        {
          "indexed": false,
          "internalType": "address",
          "name": "creator",
          "type": "address"
        },
        {
          "indexed": false,
          "internalType": "string",
          "name": "username",
          "type": "string"
        },
        {
          "indexed": false,
          "internalType": "uint256",
          "name": "timestamp",
          "type": "uint256"
        }
      ],
      "name": "KeywordAdded",
      "type": "event"
    },
    {
      "anonymous": false,
      "inputs": [
        {
          "indexed": false,
          "internalType": "string",
          "name": "keyword",
          "type": "string"
        },
        {
          "indexed": false,
          "internalType": "address",
          "name": "creator",
          "type": "address"
        },
        {
          "indexed": false,
          "internalType": "uint256",
          "name": "timestamp",
          "type": "uint256"
        }
      ],
      "name": "KeywordRemoved",
      "type": "event"
    },
    {
      "inputs": [
        {
          "internalType": "string",
          "name": "_keyword",
          "type": "string"
        },
        {
          "internalType": "string",
          "name": "_username",
          "type": "string"
        }
      ],
      "name": "addKeyword",
      "outputs": [],
      "stateMutability": "nonpayable",
      "type": "function"
    },
    {
      "inputs": [],
      "name": "getActiveKeywordCount",
      "outputs": [
        {
          "internalType": "uint256",
          "name": "",
          "type": "uint256"
        }
      ],
      "stateMutability": "view",
      "type": "function"
    },
    {
      "inputs": [],
      "name": "getAllKeywords",
      "outputs": [
        {
          "components": [
            {
              "internalType": "string",
              "name": "keyword",
              "type": "string"
            },
            {
              "internalType": "address",
              "name": "creator",
              "type": "address"
            },
            {
              "internalType": "string",
              "name": "username",
              "type": "string"
            },
            {
              "internalType": "uint256",
              "name": "timestamp",
              "type": "uint256"
            },
            {
              "internalType": "bool",
              "name": "isActive",
              "type": "bool"
            }
          ],
          "internalType": "struct BlacklistManager.Keyword[]",
          "name": "",
          "type": "tuple[]"
        }
      ],
      "stateMutability": "view",
      "type": "function"
    },
    {
      "inputs": [
        {
          "internalType": "uint256",
          "name": "_index",
          "type": "uint256"
        }
      ],
      "name": "getKeyword",
      "outputs": [
        {
          "internalType": "string",
          "name": "keyword",
          "type": "string"
        },
        {
          "internalType": "address",
          "name": "creator",
          "type": "address"
        },
        {
          "internalType": "string",
          "name": "username",
          "type": "string"
        },
        {
          "internalType": "uint256",
          "name": "timestamp",
          "type": "uint256"
        },
        {
          "internalType": "bool",
          "name": "isActive",
          "type": "bool"
        }
      ],
      "stateMutability": "view",
      "type": "function"
    },
    {
      "inputs": [],
      "name": "getKeywordCount",
      "outputs": [
        {
          "internalType": "uint256",
          "name": "",
          "type": "uint256"
        }
      ],
      "stateMutability": "view",
      "type": "function"
    },
    {
      "inputs": [
        {
          "internalType": "uint256",
          "name": "_index",
          "type": "uint256"
        }
      ],
      "name": "isKeywordActive",
      "outputs": [
        {
          "internalType": "bool",
          "name": "",
          "type": "bool"
        }
      ],
      "stateMutability": "view",
      "type": "function"
    },
    {
      "inputs": [
        {
          "internalType": "uint256",
          "name": "",
          "type": "uint256"
        }
      ],
      "name": "keywords",
      "outputs": [
        {
          "internalType": "string",
          "name": "keyword",
          "type": "string"
        },
        {
          "internalType": "address",
          "name": "creator",
          "type": "address"
        },
        {
          "internalType": "string",
          "name": "username",
          "type": "string"
        },
        {
          "internalType": "uint256",
          "name": "timestamp",
          "type": "uint256"
        },
        {
          "internalType": "bool",
          "name": "isActive",
          "type": "bool"
        }
      ],
      "stateMutability": "view",
      "type": "function"
    },
    {
      "inputs": [
        {
          "internalType": "uint256",
          "name": "_index",
          "type": "uint256"
        }
      ],
      "name": "removeKeyword",
      "outputs": [],
      "stateMutability": "nonpayable",
      "type": "function"
    },
    {
      "inputs": [
        {
          "internalType": "uint256",
          "name": "_index",
          "type": "uint256"
        }
      ],
      "name": "toggleKeyword",
      "outputs": [],
      "stateMutability": "nonpayable",
      "type": "function"
    }
  ],
  "bytecode": "0x608060405234801561001057600080fd5b50611bf4806100206000396000f3fe608060405234801561001057600080fd5b50600436106100935760003560e01c8063bfdb9e9e11610066578063bfdb9e9e1461013a578063ce8a3bcb14610156578063e72e535e14610186578063f37cbff9146101a2578063ff32e5c8146101c057610093565b8063041c8887146100985780630439c48c146100cc578063729c729a146100e8578063826110101461011c575b600080fd5b6100b260048036038101906100ad9190610f72565b6101de565b6040516100c395949392919061109a565b60405180910390f35b6100e660048036038101906100e19190610f72565b610361565b005b61010260048036038101906100fd9190610f72565b610570565b60405161011395949392919061109a565b60405180910390f35b6101246107bc565b60405161013191906110fb565b60405180910390f35b610154600480360381019061014f9190610f72565b6107c8565b005b610170600480360381019061016b9190610f72565b610a5b565b60405161017d9190611116565b60405180910390f35b6101a0600480360381019061019b9190611266565b610add565b005b6101aa610cb1565b6040516101b79190611494565b60405180910390f35b6101c8610eaf565b6040516101d591906110fb565b60405180910390f35b600081815481106101ee57600080fd5b9060005260206000209060050201600091509050806000018054610211906114e5565b80601f016020809104026020016040519081016040528092919081815260200182805461023d906114e5565b801561028a5780601f1061025f5761010080835404028352916020019161028a565b820191906000526020600020905b81548152906001019060200180831161026d57829003601f168201915b5050505050908060010160009054906101000a900473ffffffffffffffffffffffffffffffffffffffff16908060020180546102c5906114e5565b80601f01602080910402602001604051908101604052809291908181526020018280546102f1906114e5565b801561033e5780601f106103135761010080835404028352916020019161033e565b820191906000526020600020905b81548152906001019060200180831161032157829003601f168201915b5050505050908060030154908060040160009054906101000a900460ff16905085565b8060008054905081106103a9576040517f08c379a00000000000000000000000000000000000000000000000000000000081526004016103a090611562565b60405180910390fd5b813373ffffffffffffffffffffffffffffffffffffffff16600082815481106103d5576103d4611582565b5b906000526020600020906005020160010160009054906101000a900473ffffffffffffffffffffffffffffffffffffffff1673ffffffffffffffffffffffffffffffffffffffff161461045d576040517f08c379a0000000000000000000000000000000000000000000000000000000008152600401610454906115fd565b60405180910390fd5b6000838154811061047157610470611582565b5b906000526020600020906005020160040160009054906101000a900460ff166104cf576040517f08c379a00000000000000000000000000000000000000000000000000000000081526004016104c690611669565b60405180910390fd5b60008084815481106104e4576104e3611582565b5b906000526020600020906005020160040160006101000a81548160ff0219169083151502179055507f33f925c101dde02b8306a3ce871cb575c9eb58447175fd32b13ee124066de66f6000848154811061054157610540611582565b5b9060005260206000209060050201600001334260405161056393929190611722565b60405180910390a1505050565b60606000606060008060008054905086106105c0576040517f08c379a00000000000000000000000000000000000000000000000000000000081526004016105b790611562565b60405180910390fd5b60008087815481106105d5576105d4611582565b5b90600052602060002090600502016040518060a00160405290816000820180546105fe906114e5565b80601f016020809104026020016040519081016040528092919081815260200182805461062a906114e5565b80156106775780601f1061064c57610100808354040283529160200191610677565b820191906000526020600020905b81548152906001019060200180831161065a57829003601f168201915b505050505081526020016001820160009054906101000a900473ffffffffffffffffffffffffffffffffffffffff1673ffffffffffffffffffffffffffffffffffffffff1673ffffffffffffffffffffffffffffffffffffffff1681526020016002820180546106e6906114e5565b80601f0160208091040260200160405190810160405280929190818152602001828054610712906114e5565b801561075f5780601f106107345761010080835404028352916020019161075f565b820191906000526020600020905b81548152906001019060200180831161074257829003601f168201915b50505050508152602001600382015481526020016004820160009054906101000a900460ff161515151581525050905080600001518160200151826040015183606001518460800151955095509550955095505091939590929450565b60008080549050905090565b806000805490508110610810576040517f08c379a000000000000000000000000000000000000000000000000000000000815260040161080790611562565b60405180910390fd5b813373ffffffffffffffffffffffffffffffffffffffff166000828154811061083c5761083b611582565b5b906000526020600020906005020160010160009054906101000a900473ffffffffffffffffffffffffffffffffffffffff1673ffffffffffffffffffffffffffffffffffffffff16146108c4576040517f08c379a00000000000000000000000000000000000000000000000000000000081526004016108bb906115fd565b60405180910390fd5b600083815481106108d8576108d7611582565b5b906000526020600020906005020160040160009054906101000a900460ff16156000848154811061090c5761090b611582565b5b906000526020600020906005020160040160006101000a81548160ff0219169083151502179055506000838154811061094857610947611582565b5b906000526020600020906005020160040160009054906101000a900460ff16156109f6577f080676d07dc04c155b755fc2cbc388f252de0afec9909e474835ea68879fb6aa600084815481106109a1576109a0611582565b5b906000526020600020906005020160000133600086815481106109c7576109c6611582565b5b9060005260206000209060050201600201426040516109e99493929190611760565b60405180910390a1610a56565b7f33f925c101dde02b8306a3ce871cb575c9eb58447175fd32b13ee124066de66f60008481548110610a2b57610a2a611582565b5b90600052602060002090600502016000013342604051610a4d93929190611722565b60405180910390a15b505050565b600080805490508210610aa3576040517f08c379a0000000000000000000000000000000000000000000000000000000008152600401610a9a90611562565b60405180910390fd5b60008281548110610ab757610ab6611582565b5b906000526020600020906005020160040160009054906101000a900460ff169050919050565b6000825111610b21576040517f08c379a0000000000000000000000000000000000000000000000000000000008152600401610b18906117ff565b60405180910390fd5b606482511115610b66576040517f08c379a0000000000000000000000000000000000000000000000000000000008152600401610b5d9061186b565b60405180910390fd5b60006040518060a001604052808481526020013373ffffffffffffffffffffffffffffffffffffffff1681526020018381526020014281526020016001151581525090806001815401808255809150506001900390600052602060002090600502016000909190919091506000820151816000019081610be69190611a22565b5060208201518160010160006101000a81548173ffffffffffffffffffffffffffffffffffffffff021916908373ffffffffffffffffffffffffffffffffffffffff1602179055506040820151816002019081610c439190611a22565b506060820151816003015560808201518160040160006101000a81548160ff02191690831515021790555050507f080676d07dc04c155b755fc2cbc388f252de0afec9909e474835ea68879fb6aa82338342604051610ca59493929190611af4565b60405180910390a15050565b60606000805480602002602001604051908101604052809291908181526020016000905b82821015610ea657838290600052602060002090600502016040518060a0016040529081600082018054610d08906114e5565b80601f0160208091040260200160405190810160405280929190818152602001828054610d34906114e5565b8015610d815780601f10610d5657610100808354040283529160200191610d81565b820191906000526020600020905b815481529060010190602001808311610d6457829003601f168201915b505050505081526020016001820160009054906101000a900473ffffffffffffffffffffffffffffffffffffffff1673ffffffffffffffffffffffffffffffffffffffff1673ffffffffffffffffffffffffffffffffffffffff168152602001600282018054610df0906114e5565b80601f0160208091040260200160405190810160405280929190818152602001828054610e1c906114e5565b8015610e695780601f10610e3e57610100808354040283529160200191610e69565b820191906000526020600020905b815481529060010190602001808311610e4c57829003601f168201915b50505050508152602001600382015481526020016004820160009054906101000a900460ff16151515158152505081526020019060010190610cd5565b50505050905090565b6000806000905060005b600080549050811015610f205760008181548110610eda57610ed9611582565b5b906000526020600020906005020160040160009054906101000a900460ff1615610f0d578180610f0990611b76565b9250505b8080610f1890611b76565b915050610eb9565b508091505090565b6000604051905090565b600080fd5b600080fd5b6000819050919050565b610f4f81610f3c565b8114610f5a57600080fd5b50565b600081359050610f6c81610f46565b92915050565b600060208284031215610f8857610f87610f32565b5b6000610f9684828501610f5d565b91505092915050565b600081519050919050565b600082825260208201905092915050565b60005b83811015610fd9578082015181840152602081019050610fbe565b60008484015250505050565b6000601f19601f8301169050919050565b600061100182610f9f565b61100b8185610faa565b935061101b818560208601610fbb565b61102481610fe5565b840191505092915050565b600073ffffffffffffffffffffffffffffffffffffffff82169050919050565b600061105a8261102f565b9050919050565b61106a8161104f565b82525050565b61107981610f3c565b82525050565b60008115159050919050565b6110948161107f565b82525050565b600060a08201905081810360008301526110b48188610ff6565b90506110c36020830187611061565b81810360408301526110d58186610ff6565b90506110e46060830185611070565b6110f1608083018461108b565b9695505050505050565b60006020820190506111106000830184611070565b92915050565b600060208201905061112b600083018461108b565b92915050565b600080fd5b600080fd5b7f4e487b7100000000000000000000000000000000000000000000000000000000600052604160045260246000fd5b61117382610fe5565b810181811067ffffffffffffffff821117156111925761119161113b565b5b80604052505050565b60006111a5610f28565b90506111b1828261116a565b919050565b600067ffffffffffffffff8211156111d1576111d061113b565b5b6111da82610fe5565b9050602081019050919050565b82818337600083830152505050565b6000611209611204846111b6565b61119b565b90508281526020810184848401111561122557611224611136565b5b6112308482856111e7565b509392505050565b600082601f83011261124d5761124c611131565b5b813561125d8482602086016111f6565b91505092915050565b6000806040838503121561127d5761127c610f32565b5b600083013567ffffffffffffffff81111561129b5761129a610f37565b5b6112a785828601611238565b925050602083013567ffffffffffffffff8111156112c8576112c7610f37565b5b6112d485828601611238565b9150509250929050565b600081519050919050565b600082825260208201905092915050565b6000819050602082019050919050565b600082825260208201905092915050565b600061132682610f9f565b611330818561130a565b9350611340818560208601610fbb565b61134981610fe5565b840191505092915050565b61135d8161104f565b82525050565b61136c81610f3c565b82525050565b61137b8161107f565b82525050565b600060a083016000830151848203600086015261139e828261131b565b91505060208301516113b36020860182611354565b50604083015184820360408601526113cb828261131b565b91505060608301516113e06060860182611363565b5060808301516113f36080860182611372565b508091505092915050565b600061140a8383611381565b905092915050565b6000602082019050919050565b600061142a826112de565b61143481856112e9565b935083602082028501611446856112fa565b8060005b85811015611482578484038952815161146385826113fe565b945061146e83611412565b925060208a0199505060018101905061144a565b50829750879550505050505092915050565b600060208201905081810360008301526114ae818461141f565b905092915050565b7f4e487b7100000000000000000000000000000000000000000000000000000000600052602260045260246000fd5b600060028204905060018216806114fd57607f821691505b6020821081036115105761150f6114b6565b5b50919050565b7f4b6579776f726420646f6573206e6f7420657869737400000000000000000000600082015250565b600061154c601683610faa565b915061155782611516565b602082019050919050565b6000602082019050818103600083015261157b8161153f565b9050919050565b7f4e487b7100000000000000000000000000000000000000000000000000000000600052603260045260246000fd5b7f4f6e6c792063726561746f722063616e206d6f64696679206b6579776f726400600082015250565b60006115e7601f83610faa565b91506115f2826115b1565b602082019050919050565b60006020820190508181036000830152611616816115da565b9050919050565b7f4b6579776f726420697320616c726561647920696e6163746976650000000000600082015250565b6000611653601b83610faa565b915061165e8261161d565b602082019050919050565b6000602082019050818103600083015261168281611646565b9050919050565b60008190508160005260206000209050919050565b600081546116ab816114e5565b6116b58186610faa565b945060018216600081146116d057600181146116e657611719565b60ff198316865281151560200286019350611719565b6116ef85611689565b60005b83811015611711578154818901526001820191506020810190506116f2565b808801955050505b50505092915050565b6000606082019050818103600083015261173c818661169e565b905061174b6020830185611061565b6117586040830184611070565b949350505050565b6000608082019050818103600083015261177a818761169e565b90506117896020830186611061565b818103604083015261179b818561169e565b90506117aa6060830184611070565b95945050505050565b7f4b6579776f72642063616e6e6f7420626520656d707479000000000000000000600082015250565b60006117e9601783610faa565b91506117f4826117b3565b602082019050919050565b60006020820190508181036000830152611818816117dc565b9050919050565b7f4b6579776f726420746f6f206c6f6e6700000000000000000000000000000000600082015250565b6000611855601083610faa565b91506118608261181f565b602082019050919050565b6000602082019050818103600083015261188481611848565b9050919050565b60006020601f8301049050919050565b600082821b905092915050565b6000600883026118d87fffffffffffffffffffffffffffffffffffffffffffffffffffffffffffffffff8261189b565b6118e2868361189b565b95508019841693508086168417925050509392505050565b6000819050919050565b600061191f61191a61191584610f3c565b6118fa565b610f3c565b9050919050565b6000819050919050565b61193983611904565b61194d61194582611926565b8484546118a8565b825550505050565b600090565b611962611955565b61196d818484611930565b505050565b5b818110156119915761198660008261195a565b600181019050611973565b5050565b601f8211156119d6576119a781611689565b6119b08461188b565b810160208510156119bf578190505b6119d36119cb8561188b565b830182611972565b50505b505050565b600082821c905092915050565b60006119f9600019846008026119db565b1980831691505092915050565b6000611a1283836119e8565b9150826002028217905092915050565b611a2b82610f9f565b67ffffffffffffffff811115611a4457611a4361113b565b5b611a4e82546114e5565b611a59828285611995565b600060209050601f831160018114611a8c5760008415611a7a578287015190505b611a848582611a06565b865550611aec565b601f198416611a9a86611689565b60005b82811015611ac257848901518255600182019150602085019450602081019050611a9d565b86831015611adf5784890151611adb601f8916826119e8565b8355505b6001600288020188555050505b505050505050565b60006080820190508181036000830152611b0e8187610ff6565b9050611b1d6020830186611061565b8181036040830152611b2f8185610ff6565b9050611b3e6060830184611070565b95945050505050565b7f4e487b7100000000000000000000000000000000000000000000000000000000600052601160045260246000fd5b6000611b8182610f3c565b91507fffffffffffffffffffffffffffffffffffffffffffffffffffffffffffffffff8203611bb357611bb2611b47565b5b60018201905091905056fea2646970667358221220a668364457ed0464b5ea4a4b7a1c1f58f2ed036e9716f4671cdd0869c927aaeb64736f6c63430008130033",
  "linkReferences": {},
  "deployedLinkReferences": {}
}